:020000040000fa
:080000000002040000000000f2
:020000040000fa
:04000800860300006b
:020000040000fa
:04000c0004030000e9
:020000040000fa
:0400100046030000a3
:020000040000fa
:0400140024030000c1
:020000040000fa
:04001800660300007b
:020000040000fa
:04001c008603000057
:020000040000fa
:040020008603000053
:020000040000fa
:04002400860300004f
:020000040000fa
:04002800860300004b
:020000040000fa
:04002c008603000047
:020000040000fa
:040030008603000043
:020000040000fa
:04003400860300003f
:020000040000fa
:04003800860300003b
:020000040000fa
:04003c008603000037
:020000040000fa
:040040008603000033
:020000040000fa
:04004400860300002f
:020000040000fa
:04004800860300002b
:020000040000fa
:04004c008603000027
:020000040000fa
:040050008603000023
:020000040000fa
:04005400860300001f
:020000040000fa
:04005800860300001b
:020000040000fa
:04005c008603000017
:020000040000fa
:040060008603000013
:020000040000fa
:04006400860300000f
:020000040000fa
:04006800860300000b
:020000040000fa
:04006c008603000007
:020000040000fa
:040070008603000003
:020000040000fa
:0400740086030000ff
:020000040000fa
:0400780086030000fb
:020000040000fa
:04007c0086030000f7
:020000040000fa
:0400800086030000f3
:020000040000fa
:0400840086030000ef
:020000040000fa
:0400880086030000eb
:020000040000fa
:04008c0086030000e7
:020000040000fa
:0400900086030000e3
:020000040000fa
:0400940086030000df
:020000040000fa
:0400980086030000db
:020000040000fa
:04009c0086030000d7
:020000040000fa
:0400a00086030000d3
:020000040000fa
:0400a40086030000cf
:020000040000fa
:0400a80086030000cb
:020000040000fa
:0400ac0086030000c7
:020000040000fa
:0400b00086030000c3
:020000040000fa
:0400b40086030000bf
:020000040000fa
:0400b80086030000bb
:020000040000fa
:0400bc0086030000b7
:020000040000fa
:0400c00086030000b3
:020000040000fa
:0400c40086030000af
:020000040000fa
:0400c80086030000ab
:020000040000fa
:0400cc0086030000a7
:020000040000fa
:0400d00086030000a3
:020000040000fa
:0400d400860300009f
:020000040000fa
:0400d800860300009b
:020000040000fa
:0400dc008603000097
:020000040000fa
:0400e0008603000093
:020000040000fa
:0400e400860300008f
:020000040000fa
:0400e800860300008b
:020000040000fa
:0400ec008603000087
:020000040000fa
:0400f0008603000083
:020000040000fa
:0400f400860300007f
:020000040000fa
:0400f800860300007b
:020000040000fa
:0400fc008603000077
:020000040000fa
:040100008603000072
:020000040000fa
:04010400860300006e
:020000040000fa
:04010800860300006a
:020000040000fa
:04010c008603000066
:020000040000fa
:040110008603000062
:020000040000fa
:04011400860300005e
:020000040000fa
:04011800860300005a
:020000040000fa
:04011c008603000056
:020000040000fa
:040120008603000052
:020000040000fa
:04012400860300004e
:020000040000fa
:04012800860300004a
:020000040000fa
:04012c008603000046
:020000040000fa
:040130008603000042
:020000040000fa
:04013400860300003e
:020000040000fa
:04013800860300003a
:020000040000fa
:04013c008603000036
:020000040000fa
:040140008603000032
:020000040000fa
:04014400860300002e
:020000040000fa
:04014800860300002a
:020000040000fa
:04014c008603000026
:020000040000fa
:040150008603000022
:020000040000fa
:04015400860300001e
:020000040000fa
:04015800860300001a
:020000040000fa
:04015c008603000016
:020000040000fa
:040160008603000012
:020000040000fa
:04016400860300000e
:020000040000fa
:04016800860300000a
:020000040000fa
:04016c008603000006
:020000040000fa
:040170008603000002
:020000040000fa
:0401740086030000fe
:020000040000fa
:0401780086030000fa
:020000040000fa
:04017c0086030000f6
:020000040000fa
:0401800086030000f2
:020000040000fa
:0401840086030000ee
:020000040000fa
:0401880086030000ea
:020000040000fa
:04018c0086030000e6
:020000040000fa
:0401900086030000e2
:020000040000fa
:0401940086030000de
:020000040000fa
:0401980086030000da
:020000040000fa
:04019c0086030000d6
:020000040000fa
:0401a00086030000d2
:020000040000fa
:0401a40086030000ce
:020000040000fa
:0401a80086030000ca
:020000040000fa
:0401ac0086030000c6
:020000040000fa
:0401b00086030000c2
:020000040000fa
:0401b40086030000be
:020000040000fa
:0401b80086030000ba
:020000040000fa
:0401bc0086030000b6
:020000040000fa
:0401c00086030000b2
:020000040000fa
:0401c40086030000ae
:020000040000fa
:0401c80086030000aa
:020000040000fa
:0401cc0086030000a6
:020000040000fa
:0401d00086030000a2
:020000040000fa
:0401d400860300009e
:020000040000fa
:0401d800860300009a
:020000040000fa
:0401dc008603000096
:020000040000fa
:0401e0008603000092
:020000040000fa
:0401e400860300008e
:020000040000fa
:0401e800860300008a
:020000040000fa
:0401ec008603000086
:020000040000fa
:0401f0008603000082
:020000040000fa
:0401f400860300007e
:020000040000fa
:0401f800860300007a
:020000040000fa
:0401fc008603000076
:020000040000fa
:040208008603000069
:020000040000fa
:04020c0004030000e7
:020000040000fa
:0402100046030000a1
:020000040000fa
:0402140024030000bf
:020000040000fa
:040218006603000079
:020000040000fa
:04021c008603000055
:020000040000fa
:040220008603000051
:020000040000fa
:04022400860300004d
:020000040000fa
:040228008603000049
:020000040000fa
:04022c008603000045
:020000040000fa
:040230008603000041
:020000040000fa
:04023400860300003d
:020000040000fa
:040238008603000039
:020000040000fa
:04023c008603000035
:020000040000fa
:040240008603000031
:020000040000fa
:04024400860300002d
:020000040000fa
:040248008603000029
:020000040000fa
:04024c008603000025
:020000040000fa
:040250008603000021
:020000040000fa
:04025400860300001d
:020000040000fa
:040258008603000019
:020000040000fa
:04025c008603000015
:020000040000fa
:040260008603000011
:020000040000fa
:04026400860300000d
:020000040000fa
:040268008603000009
:020000040000fa
:04026c008603000005
:020000040000fa
:040270008603000001
:020000040000fa
:0402740086030000fd
:020000040000fa
:0402780086030000f9
:020000040000fa
:04027c0086030000f5
:020000040000fa
:0402800086030000f1
:020000040000fa
:0402840086030000ed
:020000040000fa
:0402880086030000e9
:020000040000fa
:04028c0086030000e5
:020000040000fa
:0402900086030000e1
:020000040000fa
:0402940086030000dd
:020000040000fa
:0402980086030000d9
:020000040000fa
:04029c0086030000d5
:020000040000fa
:0402a00086030000d1
:020000040000fa
:0402a40086030000cd
:020000040000fa
:0402a80086030000c9
:020000040000fa
:0402ac0086030000c5
:020000040000fa
:0402b00086030000c1
:020000040000fa
:0402b40086030000bd
:020000040000fa
:0402b80086030000b9
:020000040000fa
:0402bc0086030000b5
:020000040000fa
:0402c00086030000b1
:020000040000fa
:0402c40086030000ad
:020000040000fa
:0402c80086030000a9
:020000040000fa
:0402cc0086030000a5
:020000040000fa
:0402d00086030000a1
:020000040000fa
:0402d400860300009d
:020000040000fa
:0402d8008603000099
:020000040000fa
:0402dc008603000095
:020000040000fa
:0402e0008603000091
:020000040000fa
:0402e400860300008d
:020000040000fa
:0402e8008603000089
:020000040000fa
:0402ec008603000085
:020000040000fa
:0402f0008603000081
:020000040000fa
:0402f400860300007d
:020000040000fa
:0402f8008603000079
:020000040000fa
:0402fc008603000075
:020000040000fa
:040300008603000070
:020000040000fa
:04030400860300006c
:020000040000fa
:040308008603000068
:020000040000fa
:04030c008603000064
:020000040000fa
:040310008603000060
:020000040000fa
:04031400860300005c
:020000040000fa
:040318008603000058
:020000040000fa
:04031c008603000054
:020000040000fa
:040320008603000050
:020000040000fa
:04032400860300004c
:020000040000fa
:040328008603000048
:020000040000fa
:04032c008603000044
:020000040000fa
:040330008603000040
:020000040000fa
:04033400860300003c
:020000040000fa
:040338008603000038
:020000040000fa
:04033c008603000034
:020000040000fa
:040340008603000030
:020000040000fa
:04034400860300002c
:020000040000fa
:040348008603000028
:020000040000fa
:04034c008603000024
:020000040000fa
:040350008603000020
:020000040000fa
:04035400860300001c
:020000040000fa
:040358008603000018
:020000040000fa
:04035c008603000014
:020000040000fa
:040360008603000010
:020000040000fa
:04036400860300000c
:020000040000fa
:040368008603000008
:020000040000fa
:04036c008603000004
:020000040000fa
:040370008603000000
:020000040000fa
:0403740086030000fc
:020000040000fa
:0403780086030000f8
:020000040000fa
:04037c0086030000f4
:020000040000fa
:0403800086030000f0
:020000040000fa
:0403840086030000ec
:020000040000fa
:0403880086030000e8
:020000040000fa
:04038c0086030000e4
:020000040000fa
:0403900086030000e0
:020000040000fa
:0403940086030000dc
:020000040000fa
:0403980086030000d8
:020000040000fa
:04039c0086030000d4
:020000040000fa
:0403a00086030000d0
:020000040000fa
:0403a40086030000cc
:020000040000fa
:0403a80086030000c8
:020000040000fa
:0403ac0086030000c4
:020000040000fa
:0403b00086030000c0
:020000040000fa
:0403b40086030000bc
:020000040000fa
:0403b80086030000b8
:020000040000fa
:0403bc0086030000b4
:020000040000fa
:0403c00086030000b0
:020000040000fa
:0403c40086030000ac
:020000040000fa
:0403c80086030000a8
:020000040000fa
:0403cc0086030000a4
:020000040000fa
:0403d00086030000a0
:020000040000fa
:0403d400860300009c
:020000040000fa
:0403d8008603000098
:020000040000fa
:0403dc008603000094
:020000040000fa
:0403e0008603000090
:020000040000fa
:0403e400860300008c
:020000040000fa
:0403e8008603000088
:020000040000fa
:0403ec008603000084
:020000040000fa
:0403f0008603000080
:020000040000fa
:0403f400860300007c
:020000040000fa
:0403f8008603000078
:020000040000fa
:0403fc008603000074
:020000040000fa
:100400002f8220000e7f22000e01880000000000d5
:10041000000020000000e000020032000001200087
:100420002002880014000700ba0007000000e00066
:1004300003003a00e05c20000100200002003700c9
:100440000000200001002000810f70000100320038
:1004500014000700000020000000e000020032004d
:1004600000000200000000001a0502000000000069
:100470000040da000000fe004440a90020002000f7
:100480000000e0000300320010002000900188000e
:100490004440a800000006008a1f78008b1f7800e7
:1004a00000000600a1028800800478000000eb0034
:1004b0001f003700e284440054a0b4009905ba003c
:1004c000e284440054a0b4009906ba00e2844400d7
:1004d00054a0b4000006eb00476fde00fd07b20039
:1004e000ae018800636ce10003003a00eaff0700f8
:1004f0000000eb000e003700606ce10008003a00dd
:10050000004deb000a05e800020039003420ec0041
:100510000af0a0008b05e900f9ff3e000400370057
:100520006168e100010032000086eb000b0007006b
:1005300019c7ba001905ba000e04e00003003a001a
:100540000a00e000dbff3a0000000600fe07b200f0
:10055000ae0288008a047800f5ff37000cd0a300b3
:10056000e20f4d001c00390089027800354dba00b9
:100570000a05e800020039003420ec000af0a0006f
:100580008b05e9000f003200254dba000a05e8008e
:10059000020039003420ec000af0a0008b05e900cd
:1005a000080032000c00e0000600320015cdba0051
:1005b0000a05e800020039003420ec000af0a0002f
:1005c0008b05e9008984e80054a0b4000b00e0002a
:1005d000e2ff3a00000006009902ba00055d7800cb
:1005e0008b05e900f7ff3200c82ade00055d7800c0
:1005f0008b05e900f3ff32000c00e000f1ff320050
:1006000019ddba00eeff37003600f800809fbe000b
:10061000829fbe00849fbe00869fbe000000fa003d
:100620008020a9000000eb00500107000080fa00c4
:100630004f03be004f02be004f01be004f00be0080
:100640003600f900004006003600f800809fbe002a
:10065000829fbe00849fbe00869fbe000000fa00fd
:10066000470107008040a900100020003f0107005b
:100670000080fa004f03be004f02be004f01be00d3
:100680004f00be003600f900004006003600f800ba
:10069000809fbe00829fbe00849fbe00869fbe00da
:1006a0000000fa008060a900200020002f01070050
:1006b0000080fa004f03be004f02be004f01be0093
:1006c0004f00be003600f900004006003600f8007a
:1006d000809fbe00829fbe00849fbe00869fbe009a
:1006e0000000fa008080a900300020001f010700f0
:1006f0000080fa004f03be004f02be004f01be0053
:100700004f00be003600f900004006000040da004d
:080710000000fe0000000500de
:020000040000fa
:100718000000fa0080002000002888000225ef0071
:1007280030032000402888000a25ef000c25ef0040
:100738000e25ef001025ef001225ef001425ef001d
:1007480001e5a8000345a8000080fa0000000600a3
:100758000000fa000000000010288000610060001e
:100768000000e000fcff32001028800062006000fa
:100778000000e000010032000225a90030288000b6
:10078800004078000080fa00000006000200fa002d
:10079800004f780000000000112880000020200091
:1007a800008060000000e000fbff3a001e80fb00b4
:1007b800202888000080fa00000006000000fa00e7
:1007c8001028800000407800614060000080fb0035
:1007d80000f0a7000000ea000000ea004f00de0079
:1007e800004078000080fa00000006000000fa00cf
:1007f8001128800000102000008060000000e00048
:1008080007003200112880000040200000806000ae
:100818000000e00002003200100020000100370054
:100828000000eb00004078000080fa00000006009d
:100838000000fa00102880004800de0061406000d7
:100848000080fb0000f0a7000000ea000000ea00ba
:100858004f00de00004078000080fa00000006002b
:100868000000fa00102880000080fa00000006004e
:100878000000fa00d1ff07000080fa00000006001f
:100888000000fa00d9ff07000080fa000000060007
:100898000000fa00c9ff07000080fa000000060007
:1008a8000000fa00e2ff07000080fa0000000600de
:1008b8000000fa008421ef0000062000700c880078
:1008c80010002000c00c880070192000000c88005f
:1008d8000080eb00500c8800f03f2000a00c88003e
:1008e8005620ef005820ef005a20ef006e20ef004e
:1008f8007020ef007220ef008621ef009021ef00ba
:100908009a21ef0070002000400c8800c0202f00c2
:10091800900c880070002000e00c8800010880001e
:10092800f00b2000008160006004200071052000a9
:1009380003102000804978008149780082497800b6
:10094800811d800000fc2f00008060005000b30073
:10095800801d880000088000000178000260a00067
:1009680060042000710520000310200080497800f1
:1009780081497800824978000080fa00000006006a
:100988000200fa00000f780003003700007d200005
:1009980001002000650007001e00780000f0a70095
:1009a8000000ea000000ea004f00de000040780086
:1009b8001e0fe9000004e000f4ff3a000080fa008e
:1009c800000006000200fa00000f7800050037005a
:1009d80000042000010020005400070001fe2f0041
:1009e8001e8f40001e007800ff0f5000f8ff3e00e9
:1009f8000300370020002000010020004b00070002
:100a08001e00780000f0a7000000ea000000ea00dd
:100a18004f00de00004078001e0fe9000004e000ef
:100a2800f4ff3a000080fa00000006000200fa0015
:100a38006000070036ff07008121a9008141a90055
:100a4800010037000000000089ff07000004e000f3
:100a5800030032003eff07000080fb00000f780013
:100a6800100320009e007800808f500001003a009b
:100a78008521a800300320009e007800808f500058
:100a880001003a008521a900200320009e0078007b
:100a9800808f500001003a008541a80040032000e3
:100aa8009e007800808f5000e6ff3a008541a9003b
:100ab800e5ff37000000fa00001023001008880046
:100ac8000621ef006821ef006a21ef006e21ef0098
:100ad8007021ef007221ef007421ef007621ef0002
:100ae8007a21ef007c21ef007e21ef0072002000c8
:100af80080072000a10920001310200080497800f9
:100b080081497800824978000001eb0060042000e8
:100b18007105200003102000804978008149780081
:0c0b2800824978000080fa0000000600fe
:020000040000fa
:100b3400f03fb1000180b10006003500ee0309006a
:100b440000000000403fb1000180b100fbff3d0008
:100b54001000b000203fb000020035000080090002
:080b6400000000000000060083
:020000040000fa
:100b6c000200fa00000f78009e0078000140880017
:100b7c00ffff37000000fa0020802000800778007b
:100b8c00a0812000000188000080fa00000006000f
:020000040000fa
:100b9c000208000020000000800000000008000097
:100bac000200000082000000ffff000000000000b7
:020000040000fa
:100bbc000000fa003dff0700bdff0700030007001f
:100bcc00d2fe07000080fa00000006000000fa00c8
:080bdc000080fa000000060091
:020000040000fa
:020000040002f8
:04aff000ffff00005f
:020000040000fa
:020000040002f8
:04aff400fffe00005c
:020000040000fa
:020000040002f8
:04aff800bf3f000057
:020000040000fa
:020000040002f8
:04affc003f3f0000d3
:00000001FF
